{
  "contractName": "MyTokenV1",
  "abi": [
    {
      "anonymous": false,
      "inputs": [
        {
          "indexed": false,
          "internalType": "address",
          "name": "previousAdmin",
          "type": "address"
        },
        {
          "indexed": false,
          "internalType": "address",
          "name": "newAdmin",
          "type": "address"
        }
      ],
      "name": "AdminChanged",
      "type": "event"
    },
    {
      "anonymous": false,
      "inputs": [
        {
          "indexed": true,
          "internalType": "address",
          "name": "owner",
          "type": "address"
        },
        {
          "indexed": true,
          "internalType": "address",
          "name": "spender",
          "type": "address"
        },
        {
          "indexed": false,
          "internalType": "uint256",
          "name": "value",
          "type": "uint256"
        }
      ],
      "name": "Approval",
      "type": "event"
    },
    {
      "anonymous": false,
      "inputs": [
        {
          "indexed": true,
          "internalType": "address",
          "name": "beacon",
          "type": "address"
        }
      ],
      "name": "BeaconUpgraded",
      "type": "event"
    },
    {
      "anonymous": false,
      "inputs": [
        {
          "indexed": true,
          "internalType": "address",
          "name": "previousOwner",
          "type": "address"
        },
        {
          "indexed": true,
          "internalType": "address",
          "name": "newOwner",
          "type": "address"
        }
      ],
      "name": "OwnershipTransferred",
      "type": "event"
    },
    {
      "anonymous": false,
      "inputs": [
        {
          "indexed": true,
          "internalType": "address",
          "name": "from",
          "type": "address"
        },
        {
          "indexed": true,
          "internalType": "address",
          "name": "to",
          "type": "address"
        },
        {
          "indexed": false,
          "internalType": "uint256",
          "name": "value",
          "type": "uint256"
        }
      ],
      "name": "Transfer",
      "type": "event"
    },
    {
      "anonymous": false,
      "inputs": [
        {
          "indexed": true,
          "internalType": "address",
          "name": "implementation",
          "type": "address"
        }
      ],
      "name": "Upgraded",
      "type": "event"
    },
    {
      "inputs": [
        {
          "internalType": "address",
          "name": "owner",
          "type": "address"
        },
        {
          "internalType": "address",
          "name": "spender",
          "type": "address"
        }
      ],
      "name": "allowance",
      "outputs": [
        {
          "internalType": "uint256",
          "name": "",
          "type": "uint256"
        }
      ],
      "stateMutability": "view",
      "type": "function",
      "constant": true
    },
    {
      "inputs": [
        {
          "internalType": "address",
          "name": "spender",
          "type": "address"
        },
        {
          "internalType": "uint256",
          "name": "amount",
          "type": "uint256"
        }
      ],
      "name": "approve",
      "outputs": [
        {
          "internalType": "bool",
          "name": "",
          "type": "bool"
        }
      ],
      "stateMutability": "nonpayable",
      "type": "function"
    },
    {
      "inputs": [
        {
          "internalType": "address",
          "name": "account",
          "type": "address"
        }
      ],
      "name": "balanceOf",
      "outputs": [
        {
          "internalType": "uint256",
          "name": "",
          "type": "uint256"
        }
      ],
      "stateMutability": "view",
      "type": "function",
      "constant": true
    },
    {
      "inputs": [],
      "name": "decimals",
      "outputs": [
        {
          "internalType": "uint8",
          "name": "",
          "type": "uint8"
        }
      ],
      "stateMutability": "view",
      "type": "function",
      "constant": true
    },
    {
      "inputs": [
        {
          "internalType": "address",
          "name": "spender",
          "type": "address"
        },
        {
          "internalType": "uint256",
          "name": "subtractedValue",
          "type": "uint256"
        }
      ],
      "name": "decreaseAllowance",
      "outputs": [
        {
          "internalType": "bool",
          "name": "",
          "type": "bool"
        }
      ],
      "stateMutability": "nonpayable",
      "type": "function"
    },
    {
      "inputs": [
        {
          "internalType": "address",
          "name": "spender",
          "type": "address"
        },
        {
          "internalType": "uint256",
          "name": "addedValue",
          "type": "uint256"
        }
      ],
      "name": "increaseAllowance",
      "outputs": [
        {
          "internalType": "bool",
          "name": "",
          "type": "bool"
        }
      ],
      "stateMutability": "nonpayable",
      "type": "function"
    },
    {
      "inputs": [],
      "name": "name",
      "outputs": [
        {
          "internalType": "string",
          "name": "",
          "type": "string"
        }
      ],
      "stateMutability": "view",
      "type": "function",
      "constant": true
    },
    {
      "inputs": [],
      "name": "owner",
      "outputs": [
        {
          "internalType": "address",
          "name": "",
          "type": "address"
        }
      ],
      "stateMutability": "view",
      "type": "function",
      "constant": true
    },
    {
      "inputs": [],
      "name": "renounceOwnership",
      "outputs": [],
      "stateMutability": "nonpayable",
      "type": "function"
    },
    {
      "inputs": [],
      "name": "symbol",
      "outputs": [
        {
          "internalType": "string",
          "name": "",
          "type": "string"
        }
      ],
      "stateMutability": "view",
      "type": "function",
      "constant": true
    },
    {
      "inputs": [],
      "name": "totalSupply",
      "outputs": [
        {
          "internalType": "uint256",
          "name": "",
          "type": "uint256"
        }
      ],
      "stateMutability": "view",
      "type": "function",
      "constant": true
    },
    {
      "inputs": [
        {
          "internalType": "address",
          "name": "recipient",
          "type": "address"
        },
        {
          "internalType": "uint256",
          "name": "amount",
          "type": "uint256"
        }
      ],
      "name": "transfer",
      "outputs": [
        {
          "internalType": "bool",
          "name": "",
          "type": "bool"
        }
      ],
      "stateMutability": "nonpayable",
      "type": "function"
    },
    {
      "inputs": [
        {
          "internalType": "address",
          "name": "sender",
          "type": "address"
        },
        {
          "internalType": "address",
          "name": "recipient",
          "type": "address"
        },
        {
          "internalType": "uint256",
          "name": "amount",
          "type": "uint256"
        }
      ],
      "name": "transferFrom",
      "outputs": [
        {
          "internalType": "bool",
          "name": "",
          "type": "bool"
        }
      ],
      "stateMutability": "nonpayable",
      "type": "function"
    },
    {
      "inputs": [
        {
          "internalType": "address",
          "name": "newOwner",
          "type": "address"
        }
      ],
      "name": "transferOwnership",
      "outputs": [],
      "stateMutability": "nonpayable",
      "type": "function"
    },
    {
      "inputs": [
        {
          "internalType": "address",
          "name": "newImplementation",
          "type": "address"
        }
      ],
      "name": "upgradeTo",
      "outputs": [],
      "stateMutability": "nonpayable",
      "type": "function"
    },
    {
      "inputs": [
        {
          "internalType": "address",
          "name": "newImplementation",
          "type": "address"
        },
        {
          "internalType": "bytes",
          "name": "data",
          "type": "bytes"
        }
      ],
      "name": "upgradeToAndCall",
      "outputs": [],
      "stateMutability": "payable",
      "type": "function",
      "payable": true
    },
    {
      "inputs": [],
      "name": "initialize",
      "outputs": [],
      "stateMutability": "nonpayable",
      "type": "function"
    },
    {
      "inputs": [
        {
          "internalType": "uint256",
          "name": "amount",
          "type": "uint256"
        }
      ],
      "name": "burn",
      "outputs": [],
      "stateMutability": "nonpayable",
      "type": "function"
    }
  ],
  "bytecode": "0x60a06040526c01000000000000000000000000300260805234801561002357600080fd5b506080516c010000000000000000000000009004611c5c610064600039600081816104ff015281816105420152818161061401526106570152611c5c6000f3fe608060405260043610610126576000357c01000000000000000000000000000000000000000000000000000000009004806370a08231116100b257806395d89b411161008157806395d89b41146102c8578063a457c2d7146102dd578063a9059cbb146102fd578063dd62ed3e1461031d578063f2fde38b1461036357610126565b806370a0823114610256578063715018a6146102765780638129fc1c1461028b5780638da5cb5b146102a057610126565b8063313ce567116100f9578063313ce567146101c55780633659cfe6146101e1578063395093511461020357806342966c68146102235780634f1ef2861461024357610126565b806306fdde031461012b578063095ea7b31461015657806318160ddd1461018657806323b872dd146101a5575b600080fd5b34801561013757600080fd5b50610140610383565b60405161014d919061183b565b60405180910390f35b34801561016257600080fd5b506101766101713660046117de565b610415565b604051901515815260200161014d565b34801561019257600080fd5b506035545b60405190815260200161014d565b3480156101b157600080fd5b506101766101c03660046116e6565b61042b565b3480156101d157600080fd5b506040516012815260200161014d565b3480156101ed57600080fd5b506102016101fc36600461169a565b6104f4565b005b34801561020f57600080fd5b5061017661021e3660046117de565b6105c3565b34801561022f57600080fd5b5061020161023e366004611807565b6105ff565b610201610251366004611721565b610609565b34801561026257600080fd5b5061019761027136600461169a565b6106c9565b34801561028257600080fd5b506102016106e8565b34801561029757600080fd5b50610201610721565b3480156102ac57600080fd5b50606554604051600160a060020a03909116815260200161014d565b3480156102d457600080fd5b50610140610891565b3480156102e957600080fd5b506101766102f83660046117de565b6108a0565b34801561030957600080fd5b506101766103183660046117de565b610954565b34801561032957600080fd5b506101976103383660046116b4565b600160a060020a03918216600090815260346020908152604080832093909416825291909152205490565b34801561036f57600080fd5b5061020161037e36600461169a565b610961565b60606036805461039290611b4d565b80601f01602080910402602001604051908101604052809291908181526020018280546103be90611b4d565b801561040b5780601f106103e05761010080835404028352916020019161040b565b820191906000526020600020905b8154815290600101906020018083116103ee57829003601f168201915b5050505050905090565b6000610422338484610a16565b50600192915050565b6000610438848484610b75565b600160a060020a0384166000908152603460209081526040808320338452909152902054828110156104da5760405160e560020a62461bcd02815260206004820152602860248201527f45524332303a207472616e7366657220616d6f756e742065786365656473206160448201527f6c6c6f77616e636500000000000000000000000000000000000000000000000060648201526084015b60405180910390fd5b6104e78533858403610a16565b60019150505b9392505050565b30600160a060020a037f00000000000000000000000000000000000000000000000000000000000000001614156105405760405160e560020a62461bcd0281526004016104d19061186e565b7f0000000000000000000000000000000000000000000000000000000000000000600160a060020a0316610572610d97565b600160a060020a03161461059b5760405160e560020a62461bcd0281526004016104d1906118cb565b6105a481610dc5565b604080516000808252602082019092526105c091839190610df2565b50565b336000818152603460209081526040808320600160a060020a038716845290915281205490916104229185906105fa9086906119ba565b610a16565b6105c03382610f7c565b30600160a060020a037f00000000000000000000000000000000000000000000000000000000000000001614156106555760405160e560020a62461bcd0281526004016104d19061186e565b7f0000000000000000000000000000000000000000000000000000000000000000600160a060020a0316610687610d97565b600160a060020a0316146106b05760405160e560020a62461bcd0281526004016104d1906118cb565b6106b982610dc5565b6106c582826001610df2565b5050565b600160a060020a0381166000908152603360205260409020545b919050565b606554600160a060020a031633146107155760405160e560020a62461bcd0281526004016104d190611928565b61071f6000611104565b565b600054610100900460ff1661073c5760005460ff1615610740565b303b155b6107b55760405160e560020a62461bcd02815260206004820152602e60248201527f496e697469616c697a61626c653a20636f6e747261637420697320616c72656160448201527f647920696e697469616c697a656400000000000000000000000000000000000060648201526084016104d1565b600054610100900460ff161580156107d7576000805461ffff19166101011790555b61084b6040518060400160405280600781526020017f4d79546f6b656e000000000000000000000000000000000000000000000000008152506040518060400160405280600381526020017f4d544b0000000000000000000000000000000000000000000000000000000000815250611163565b61085361119f565b61085b6111d9565b61087d3361086b6012600a611a1a565b61087890620f4240611aeb565b611213565b80156105c0576000805461ff001916905550565b60606037805461039290611b4d565b336000908152603460209081526040808320600160a060020a03861684529091528120548281101561093d5760405160e560020a62461bcd02815260206004820152602560248201527f45524332303a2064656372656173656420616c6c6f77616e63652062656c6f7760448201527f207a65726f00000000000000000000000000000000000000000000000000000060648201526084016104d1565b61094a3385858403610a16565b5060019392505050565b6000610422338484610b75565b606554600160a060020a0316331461098e5760405160e560020a62461bcd0281526004016104d190611928565b600160a060020a038116610a0d5760405160e560020a62461bcd02815260206004820152602660248201527f4f776e61626c653a206e6577206f776e657220697320746865207a65726f206160448201527f646472657373000000000000000000000000000000000000000000000000000060648201526084016104d1565b6105c081611104565b600160a060020a038316610a945760405160e560020a62461bcd028152602060048201526024808201527f45524332303a20617070726f76652066726f6d20746865207a65726f2061646460448201527f726573730000000000000000000000000000000000000000000000000000000060648201526084016104d1565b600160a060020a038216610b135760405160e560020a62461bcd02815260206004820152602260248201527f45524332303a20617070726f766520746f20746865207a65726f20616464726560448201527f737300000000000000000000000000000000000000000000000000000000000060648201526084016104d1565b600160a060020a0383811660008181526034602090815260408083209487168084529482529182902085905590518481527f8c5be1e5ebec7d5bd14f71427d1e84f3dd0314c0f7b2291e5b200ac8c7c3b92591015b60405180910390a3505050565b600160a060020a038316610bf45760405160e560020a62461bcd02815260206004820152602560248201527f45524332303a207472616e736665722066726f6d20746865207a65726f20616460448201527f647265737300000000000000000000000000000000000000000000000000000060648201526084016104d1565b600160a060020a038216610c735760405160e560020a62461bcd02815260206004820152602360248201527f45524332303a207472616e7366657220746f20746865207a65726f206164647260448201527f657373000000000000000000000000000000000000000000000000000000000060648201526084016104d1565b600160a060020a03831660009081526033602052604090205481811015610d055760405160e560020a62461bcd02815260206004820152602660248201527f45524332303a207472616e7366657220616d6f756e742065786365656473206260448201527f616c616e6365000000000000000000000000000000000000000000000000000060648201526084016104d1565b600160a060020a03808516600090815260336020526040808220858503905591851681529081208054849290610d3c9084906119ba565b9250508190555082600160a060020a031684600160a060020a03167fddf252ad1be2c89b69c2b068fc378daa952ba7f163c4a11628f55a4df523b3ef84604051610d8891815260200190565b60405180910390a35b50505050565b7f360894a13ba1a3210667c828492db98dca3e2076cc3735a920a3ca505d382bbc54600160a060020a031690565b606554600160a060020a031633146105c05760405160e560020a62461bcd0281526004016104d190611928565b6000610dfc610d97565b9050610e07846112f6565b600083511180610e145750815b15610e2557610e2384846113bb565b505b7f4910fdfa16fed3260ed0e7147f7cc6da11a60208b5b9406d12a635614ffd9143805460ff16610f7557805460ff19166001178155604051600160a060020a0383166024820152610ed290869060440160408051601f198184030181529190526020810180517bffffffffffffffffffffffffffffffffffffffffffffffffffffffff167f3659cfe6000000000000000000000000000000000000000000000000000000001790526113bb565b50805460ff19168155610ee3610d97565b600160a060020a031682600160a060020a031614610f6c5760405160e560020a62461bcd02815260206004820152602f60248201527f45524331393637557067726164653a207570677261646520627265616b73206660448201527f757274686572207570677261646573000000000000000000000000000000000060648201526084016104d1565b610f75856114c0565b5050505050565b600160a060020a038216610ffb5760405160e560020a62461bcd02815260206004820152602160248201527f45524332303a206275726e2066726f6d20746865207a65726f2061646472657360448201527f730000000000000000000000000000000000000000000000000000000000000060648201526084016104d1565b600160a060020a0382166000908152603360205260409020548181101561108d5760405160e560020a62461bcd02815260206004820152602260248201527f45524332303a206275726e20616d6f756e7420657863656564732062616c616e60448201527f636500000000000000000000000000000000000000000000000000000000000060648201526084016104d1565b600160a060020a03831660009081526033602052604081208383039055603580548492906110bc908490611b0a565b9091555050604051828152600090600160a060020a038516907fddf252ad1be2c89b69c2b068fc378daa952ba7f163c4a11628f55a4df523b3ef90602001610b68565b505050565b60658054600160a060020a0383811673ffffffffffffffffffffffffffffffffffffffff19831681179093556040519116919082907f8be0079c531659141344cd1fd0a4f28419497f9722a3daafe3b4186f6b6457e090600090a35050565b600054610100900460ff1661118d5760405160e560020a62461bcd0281526004016104d19061195d565b611195611500565b6106c5828261152a565b600054610100900460ff166111c95760405160e560020a62461bcd0281526004016104d19061195d565b6111d1611500565b61071f61157b565b600054610100900460ff166112035760405160e560020a62461bcd0281526004016104d19061195d565b61120b611500565b61071f611500565b600160a060020a03821661126c5760405160e560020a62461bcd02815260206004820152601f60248201527f45524332303a206d696e7420746f20746865207a65726f20616464726573730060448201526064016104d1565b806035600082825461127e91906119ba565b9091555050600160a060020a038216600090815260336020526040812080548392906112ab9084906119ba565b9091555050604051818152600160a060020a038316906000907fddf252ad1be2c89b69c2b068fc378daa952ba7f163c4a11628f55a4df523b3ef9060200160405180910390a36106c5565b803b61136d5760405160e560020a62461bcd02815260206004820152602d60248201527f455243313936373a206e657720696d706c656d656e746174696f6e206973206e60448201527f6f74206120636f6e74726163740000000000000000000000000000000000000060648201526084016104d1565b7f360894a13ba1a3210667c828492db98dca3e2076cc3735a920a3ca505d382bbc805473ffffffffffffffffffffffffffffffffffffffff1916600160a060020a0392909216919091179055565b6060823b6114345760405160e560020a62461bcd02815260206004820152602660248201527f416464726573733a2064656c65676174652063616c6c20746f206e6f6e2d636f60448201527f6e7472616374000000000000000000000000000000000000000000000000000060648201526084016104d1565b60008084600160a060020a03168460405161144f919061181f565b600060405180830381855af49150503d806000811461148a576040519150601f19603f3d011682016040523d82523d6000602084013e61148f565b606091505b50915091506114b78282604051806060016040528060278152602001611c00602791396115ae565b95945050505050565b6114c9816112f6565b604051600160a060020a038216907fbc7cd75a20ee27fd9adebab32041f755214dbc6bffa90cc0225b39da2e5c2d3b90600090a250565b600054610100900460ff1661071f5760405160e560020a62461bcd0281526004016104d19061195d565b600054610100900460ff166115545760405160e560020a62461bcd0281526004016104d19061195d565b81516115679060369060208501906115ea565b5080516110ff9060379060208401906115ea565b600054610100900460ff166115a55760405160e560020a62461bcd0281526004016104d19061195d565b61071f33611104565b606083156115bd5750816104ed565b8251156115cd5782518084602001fd5b8160405160e560020a62461bcd0281526004016104d1919061183b565b8280546115f690611b4d565b90600052602060002090601f016020900481019282611618576000855561165e565b82601f1061163157805160ff191683800117855561165e565b8280016001018555821561165e579182015b8281111561165e578251825591602001919060010190611643565b5061166a92915061166e565b5090565b5b8082111561166a576000815560010161166f565b8035600160a060020a03811681146106e357600080fd5b6000602082840312156116ab578081fd5b6104ed82611683565b600080604083850312156116c6578081fd5b6116cf83611683565b91506116dd60208401611683565b90509250929050565b6000806000606084860312156116fa578081fd5b61170384611683565b925061171160208501611683565b9150604084013590509250925092565b60008060408385031215611733578182fd5b61173c83611683565b9150602083013567ffffffffffffffff80821115611758578283fd5b818501915085601f83011261176b578283fd5b81358181111561177d5761177d611bd0565b604051601f8201601f19908116603f011681019083821181831017156117a5576117a5611bd0565b816040528281528860208487010111156117bd578586fd5b82602086016020830137856020848301015280955050505050509250929050565b600080604083850312156117f0578182fd5b6117f983611683565b946020939093013593505050565b600060208284031215611818578081fd5b5035919050565b60008251611831818460208701611b21565b9190910192915050565b600060208252825180602084015261185a816040850160208701611b21565b601f01601f19169190910160400192915050565b6020808252602c908201527f46756e6374696f6e206d7573742062652063616c6c6564207468726f7567682060408201527f64656c656761746563616c6c0000000000000000000000000000000000000000606082015260800190565b6020808252602c908201527f46756e6374696f6e206d7573742062652063616c6c6564207468726f7567682060408201527f6163746976652070726f78790000000000000000000000000000000000000000606082015260800190565b6020808252818101527f4f776e61626c653a2063616c6c6572206973206e6f7420746865206f776e6572604082015260600190565b6020808252602b908201527f496e697469616c697a61626c653a20636f6e7472616374206973206e6f74206960408201527f6e697469616c697a696e67000000000000000000000000000000000000000000606082015260800190565b600082198211156119cd576119cd611ba1565b500190565b80825b60018086116119e45750611a11565b8187048211156119f6576119f6611ba1565b80861615611a0357918102915b5060029094049380026119d5565b94509492505050565b60006104ed60001960ff851684600082611a36575060016104ed565b81611a43575060006104ed565b8160018114611a595760028114611a6357611a90565b60019150506104ed565b60ff841115611a7457611a74611ba1565b8360020a915084821115611a8a57611a8a611ba1565b506104ed565b5060208310610133831016604e8410600b8410161715611ac3575081810a83811115611abe57611abe611ba1565b6104ed565b611ad084848460016119d2565b808604821115611ae257611ae2611ba1565b02949350505050565b6000816000190483118215151615611b0557611b05611ba1565b500290565b600082821015611b1c57611b1c611ba1565b500390565b60005b83811015611b3c578181015183820152602001611b24565b83811115610d915750506000910152565b600281046001821680611b6157607f821691505b60208210811415611b9b577f4e487b7100000000000000000000000000000000000000000000000000000000600052602260045260246000fd5b50919050565b7f4e487b7100000000000000000000000000000000000000000000000000000000600052601160045260246000fd5b7f4e487b7100000000000000000000000000000000000000000000000000000000600052604160045260246000fdfe416464726573733a206c6f772d6c6576656c2064656c65676174652063616c6c206661696c6564a2646970667358221220dd0d139611aa11f22061606159deda9d59f98f3f06db9a9564e6ae6d7da17df564736f6c63430008030033",
  "immutableReferences": {
    "641": [
      {
        "length": 32,
        "start": 1279
      },
      {
        "length": 32,
        "start": 1346
      },
      {
        "length": 32,
        "start": 1556
      },
      {
        "length": 32,
        "start": 1623
      }
    ]
  },
  "source": "// SPDX-License-Identifier: MIT\npragma solidity ^0.8.2;\n\nimport \"@openzeppelin/contracts-upgradeable/token/ERC20/ERC20Upgradeable.sol\";\nimport \"@openzeppelin/contracts-upgradeable/proxy/utils/Initializable.sol\";\nimport \"@openzeppelin/contracts-upgradeable/access/OwnableUpgradeable.sol\";\nimport \"@openzeppelin/contracts-upgradeable/proxy/utils/UUPSUpgradeable.sol\";\n\ncontract MyTokenV1 is\n    Initializable,\n    ERC20Upgradeable,\n    OwnableUpgradeable,\n    UUPSUpgradeable\n{\n    function initialize() public initializer {\n        __ERC20_init(\"MyToken\", \"MTK\");\n        __Ownable_init();\n        __UUPSUpgradeable_init();\n        _mint(msg.sender, 1000000 * 10**decimals());\n    }\n\n    function burn(uint256 amount) external {\n        _burn(msg.sender, amount);\n    }\n\n    function _authorizeUpgrade(address newImplementation)\n        internal\n        override\n        onlyOwner\n    {}\n}\n",
  "sourcePath": "/home/karthi/Task Month Wise/openzepplin _ upgradable_contract/contracts/MyTokenV1.sol",
  "compiler": {
    "name": "solc",
    "version": "0.8.3+commit.8d00100c.Emscripten.clang"
  },
  "schemaVersion": "3.4.3",
  "updatedAt": "2021-12-28T10:50:26.297Z",
  "networkType": "ethereum",
  "devdoc": {
    "kind": "dev",
    "methods": {
      "allowance(address,address)": {
        "details": "See {IERC20-allowance}."
      },
      "approve(address,uint256)": {
        "details": "See {IERC20-approve}. Requirements: - `spender` cannot be the zero address."
      },
      "balanceOf(address)": {
        "details": "See {IERC20-balanceOf}."
      },
      "decimals()": {
        "details": "Returns the number of decimals used to get its user representation. For example, if `decimals` equals `2`, a balance of `505` tokens should be displayed to a user as `5.05` (`505 / 10 ** 2`). Tokens usually opt for a value of 18, imitating the relationship between Ether and Wei. This is the value {ERC20} uses, unless this function is overridden; NOTE: This information is only used for _display_ purposes: it in no way affects any of the arithmetic of the contract, including {IERC20-balanceOf} and {IERC20-transfer}."
      },
      "decreaseAllowance(address,uint256)": {
        "details": "Atomically decreases the allowance granted to `spender` by the caller. This is an alternative to {approve} that can be used as a mitigation for problems described in {IERC20-approve}. Emits an {Approval} event indicating the updated allowance. Requirements: - `spender` cannot be the zero address. - `spender` must have allowance for the caller of at least `subtractedValue`."
      },
      "increaseAllowance(address,uint256)": {
        "details": "Atomically increases the allowance granted to `spender` by the caller. This is an alternative to {approve} that can be used as a mitigation for problems described in {IERC20-approve}. Emits an {Approval} event indicating the updated allowance. Requirements: - `spender` cannot be the zero address."
      },
      "name()": {
        "details": "Returns the name of the token."
      },
      "owner()": {
        "details": "Returns the address of the current owner."
      },
      "renounceOwnership()": {
        "details": "Leaves the contract without owner. It will not be possible to call `onlyOwner` functions anymore. Can only be called by the current owner. NOTE: Renouncing ownership will leave the contract without an owner, thereby removing any functionality that is only available to the owner."
      },
      "symbol()": {
        "details": "Returns the symbol of the token, usually a shorter version of the name."
      },
      "totalSupply()": {
        "details": "See {IERC20-totalSupply}."
      },
      "transfer(address,uint256)": {
        "details": "See {IERC20-transfer}. Requirements: - `recipient` cannot be the zero address. - the caller must have a balance of at least `amount`."
      },
      "transferFrom(address,address,uint256)": {
        "details": "See {IERC20-transferFrom}. Emits an {Approval} event indicating the updated allowance. This is not required by the EIP. See the note at the beginning of {ERC20}. Requirements: - `sender` and `recipient` cannot be the zero address. - `sender` must have a balance of at least `amount`. - the caller must have allowance for ``sender``'s tokens of at least `amount`."
      },
      "transferOwnership(address)": {
        "details": "Transfers ownership of the contract to a new account (`newOwner`). Can only be called by the current owner."
      },
      "upgradeTo(address)": {
        "details": "Upgrade the implementation of the proxy to `newImplementation`. Calls {_authorizeUpgrade}. Emits an {Upgraded} event."
      },
      "upgradeToAndCall(address,bytes)": {
        "details": "Upgrade the implementation of the proxy to `newImplementation`, and subsequently execute the function call encoded in `data`. Calls {_authorizeUpgrade}. Emits an {Upgraded} event."
      }
    },
    "version": 1
  },
  "userdoc": {
    "kind": "user",
    "methods": {},
    "version": 1
  }
}