{
  "contractName": "MyToken",
  "abi": [
    {
      "anonymous": false,
      "inputs": [
        {
          "indexed": false,
          "internalType": "address",
          "name": "previousAdmin",
          "type": "address"
        },
        {
          "indexed": false,
          "internalType": "address",
          "name": "newAdmin",
          "type": "address"
        }
      ],
      "name": "AdminChanged",
      "type": "event"
    },
    {
      "anonymous": false,
      "inputs": [
        {
          "indexed": true,
          "internalType": "address",
          "name": "owner",
          "type": "address"
        },
        {
          "indexed": true,
          "internalType": "address",
          "name": "spender",
          "type": "address"
        },
        {
          "indexed": false,
          "internalType": "uint256",
          "name": "value",
          "type": "uint256"
        }
      ],
      "name": "Approval",
      "type": "event"
    },
    {
      "anonymous": false,
      "inputs": [
        {
          "indexed": true,
          "internalType": "address",
          "name": "beacon",
          "type": "address"
        }
      ],
      "name": "BeaconUpgraded",
      "type": "event"
    },
    {
      "anonymous": false,
      "inputs": [
        {
          "indexed": true,
          "internalType": "address",
          "name": "previousOwner",
          "type": "address"
        },
        {
          "indexed": true,
          "internalType": "address",
          "name": "newOwner",
          "type": "address"
        }
      ],
      "name": "OwnershipTransferred",
      "type": "event"
    },
    {
      "anonymous": false,
      "inputs": [
        {
          "indexed": true,
          "internalType": "address",
          "name": "from",
          "type": "address"
        },
        {
          "indexed": true,
          "internalType": "address",
          "name": "to",
          "type": "address"
        },
        {
          "indexed": false,
          "internalType": "uint256",
          "name": "value",
          "type": "uint256"
        }
      ],
      "name": "Transfer",
      "type": "event"
    },
    {
      "anonymous": false,
      "inputs": [
        {
          "indexed": true,
          "internalType": "address",
          "name": "implementation",
          "type": "address"
        }
      ],
      "name": "Upgraded",
      "type": "event"
    },
    {
      "inputs": [
        {
          "internalType": "address",
          "name": "owner",
          "type": "address"
        },
        {
          "internalType": "address",
          "name": "spender",
          "type": "address"
        }
      ],
      "name": "allowance",
      "outputs": [
        {
          "internalType": "uint256",
          "name": "",
          "type": "uint256"
        }
      ],
      "stateMutability": "view",
      "type": "function",
      "constant": true
    },
    {
      "inputs": [
        {
          "internalType": "address",
          "name": "spender",
          "type": "address"
        },
        {
          "internalType": "uint256",
          "name": "amount",
          "type": "uint256"
        }
      ],
      "name": "approve",
      "outputs": [
        {
          "internalType": "bool",
          "name": "",
          "type": "bool"
        }
      ],
      "stateMutability": "nonpayable",
      "type": "function"
    },
    {
      "inputs": [
        {
          "internalType": "address",
          "name": "account",
          "type": "address"
        }
      ],
      "name": "balanceOf",
      "outputs": [
        {
          "internalType": "uint256",
          "name": "",
          "type": "uint256"
        }
      ],
      "stateMutability": "view",
      "type": "function",
      "constant": true
    },
    {
      "inputs": [],
      "name": "decimals",
      "outputs": [
        {
          "internalType": "uint8",
          "name": "",
          "type": "uint8"
        }
      ],
      "stateMutability": "view",
      "type": "function",
      "constant": true
    },
    {
      "inputs": [
        {
          "internalType": "address",
          "name": "spender",
          "type": "address"
        },
        {
          "internalType": "uint256",
          "name": "subtractedValue",
          "type": "uint256"
        }
      ],
      "name": "decreaseAllowance",
      "outputs": [
        {
          "internalType": "bool",
          "name": "",
          "type": "bool"
        }
      ],
      "stateMutability": "nonpayable",
      "type": "function"
    },
    {
      "inputs": [
        {
          "internalType": "address",
          "name": "spender",
          "type": "address"
        },
        {
          "internalType": "uint256",
          "name": "addedValue",
          "type": "uint256"
        }
      ],
      "name": "increaseAllowance",
      "outputs": [
        {
          "internalType": "bool",
          "name": "",
          "type": "bool"
        }
      ],
      "stateMutability": "nonpayable",
      "type": "function"
    },
    {
      "inputs": [],
      "name": "name",
      "outputs": [
        {
          "internalType": "string",
          "name": "",
          "type": "string"
        }
      ],
      "stateMutability": "view",
      "type": "function",
      "constant": true
    },
    {
      "inputs": [],
      "name": "owner",
      "outputs": [
        {
          "internalType": "address",
          "name": "",
          "type": "address"
        }
      ],
      "stateMutability": "view",
      "type": "function",
      "constant": true
    },
    {
      "inputs": [],
      "name": "renounceOwnership",
      "outputs": [],
      "stateMutability": "nonpayable",
      "type": "function"
    },
    {
      "inputs": [],
      "name": "symbol",
      "outputs": [
        {
          "internalType": "string",
          "name": "",
          "type": "string"
        }
      ],
      "stateMutability": "view",
      "type": "function",
      "constant": true
    },
    {
      "inputs": [],
      "name": "totalSupply",
      "outputs": [
        {
          "internalType": "uint256",
          "name": "",
          "type": "uint256"
        }
      ],
      "stateMutability": "view",
      "type": "function",
      "constant": true
    },
    {
      "inputs": [
        {
          "internalType": "address",
          "name": "recipient",
          "type": "address"
        },
        {
          "internalType": "uint256",
          "name": "amount",
          "type": "uint256"
        }
      ],
      "name": "transfer",
      "outputs": [
        {
          "internalType": "bool",
          "name": "",
          "type": "bool"
        }
      ],
      "stateMutability": "nonpayable",
      "type": "function"
    },
    {
      "inputs": [
        {
          "internalType": "address",
          "name": "sender",
          "type": "address"
        },
        {
          "internalType": "address",
          "name": "recipient",
          "type": "address"
        },
        {
          "internalType": "uint256",
          "name": "amount",
          "type": "uint256"
        }
      ],
      "name": "transferFrom",
      "outputs": [
        {
          "internalType": "bool",
          "name": "",
          "type": "bool"
        }
      ],
      "stateMutability": "nonpayable",
      "type": "function"
    },
    {
      "inputs": [
        {
          "internalType": "address",
          "name": "newOwner",
          "type": "address"
        }
      ],
      "name": "transferOwnership",
      "outputs": [],
      "stateMutability": "nonpayable",
      "type": "function"
    },
    {
      "inputs": [
        {
          "internalType": "address",
          "name": "newImplementation",
          "type": "address"
        }
      ],
      "name": "upgradeTo",
      "outputs": [],
      "stateMutability": "nonpayable",
      "type": "function"
    },
    {
      "inputs": [
        {
          "internalType": "address",
          "name": "newImplementation",
          "type": "address"
        },
        {
          "internalType": "bytes",
          "name": "data",
          "type": "bytes"
        }
      ],
      "name": "upgradeToAndCall",
      "outputs": [],
      "stateMutability": "payable",
      "type": "function",
      "payable": true
    },
    {
      "inputs": [],
      "name": "initialize",
      "outputs": [],
      "stateMutability": "nonpayable",
      "type": "function"
    }
  ],
  "bytecode": "0x60a06040526c01000000000000000000000000300260805234801561002357600080fd5b506080516c010000000000000000000000009004611a74610064600039600081816104d401528181610517015281816105df01526106220152611a746000f3fe60806040526004361061011b576000357c01000000000000000000000000000000000000000000000000000000009004806370a08231116100b257806395d89b411161008157806395d89b411461029d578063a457c2d7146102b2578063a9059cbb146102d2578063dd62ed3e146102f2578063f2fde38b146103385761011b565b806370a082311461022b578063715018a61461024b5780638129fc1c146102605780638da5cb5b146102755761011b565b8063313ce567116100ee578063313ce567146101ba5780633659cfe6146101d657806339509351146101f85780634f1ef286146102185761011b565b806306fdde0314610120578063095ea7b31461014b57806318160ddd1461017b57806323b872dd1461019a575b600080fd5b34801561012c57600080fd5b50610135610358565b604051610142919061166a565b60405180910390f35b34801561015757600080fd5b5061016b610166366004611625565b6103ea565b6040519015158152602001610142565b34801561018757600080fd5b506035545b604051908152602001610142565b3480156101a657600080fd5b5061016b6101b536600461152d565b610400565b3480156101c657600080fd5b5060405160128152602001610142565b3480156101e257600080fd5b506101f66101f13660046114e1565b6104c9565b005b34801561020457600080fd5b5061016b610213366004611625565b610598565b6101f6610226366004611568565b6105d4565b34801561023757600080fd5b5061018c6102463660046114e1565b610694565b34801561025757600080fd5b506101f66106b3565b34801561026c57600080fd5b506101f66106ec565b34801561028157600080fd5b50606554604051600160a060020a039091168152602001610142565b3480156102a957600080fd5b5061013561085c565b3480156102be57600080fd5b5061016b6102cd366004611625565b61086b565b3480156102de57600080fd5b5061016b6102ed366004611625565b61091f565b3480156102fe57600080fd5b5061018c61030d3660046114fb565b600160a060020a03918216600090815260346020908152604080832093909416825291909152205490565b34801561034457600080fd5b506101f66103533660046114e1565b61092c565b60606036805461036790611965565b80601f016020809104026020016040519081016040528092919081815260200182805461039390611965565b80156103e05780601f106103b5576101008083540402835291602001916103e0565b820191906000526020600020905b8154815290600101906020018083116103c357829003601f168201915b5050505050905090565b60006103f73384846109e1565b50600192915050565b600061040d848484610b3f565b600160a060020a0384166000908152603460209081526040808320338452909152902054828110156104af5760405160e560020a62461bcd02815260206004820152602860248201527f45524332303a207472616e7366657220616d6f756e742065786365656473206160448201527f6c6c6f77616e636500000000000000000000000000000000000000000000000060648201526084015b60405180910390fd5b6104bc85338584036109e1565b60019150505b9392505050565b30600160a060020a037f00000000000000000000000000000000000000000000000000000000000000001614156105155760405160e560020a62461bcd0281526004016104a69061169d565b7f0000000000000000000000000000000000000000000000000000000000000000600160a060020a0316610547610d61565b600160a060020a0316146105705760405160e560020a62461bcd0281526004016104a6906116fa565b61057981610d8f565b6040805160008082526020820190925261059591839190610dbc565b50565b336000818152603460209081526040808320600160a060020a038716845290915281205490916103f79185906105cf9086906117e9565b6109e1565b30600160a060020a037f00000000000000000000000000000000000000000000000000000000000000001614156106205760405160e560020a62461bcd0281526004016104a69061169d565b7f0000000000000000000000000000000000000000000000000000000000000000600160a060020a0316610652610d61565b600160a060020a03161461067b5760405160e560020a62461bcd0281526004016104a6906116fa565b61068482610d8f565b61069082826001610dbc565b5050565b600160a060020a0381166000908152603360205260409020545b919050565b606554600160a060020a031633146106e05760405160e560020a62461bcd0281526004016104a690611757565b6106ea6000610f46565b565b600054610100900460ff166107075760005460ff161561070b565b303b155b6107805760405160e560020a62461bcd02815260206004820152602e60248201527f496e697469616c697a61626c653a20636f6e747261637420697320616c72656160448201527f647920696e697469616c697a656400000000000000000000000000000000000060648201526084016104a6565b600054610100900460ff161580156107a2576000805461ffff19166101011790555b6108166040518060400160405280600781526020017f4d79546f6b656e000000000000000000000000000000000000000000000000008152506040518060400160405280600381526020017f4d544b0000000000000000000000000000000000000000000000000000000000815250610fa5565b61081e610fe1565b61082661101b565b610848336108366012600a611849565b61084390620f424061191a565b611055565b8015610595576000805461ff001916905550565b60606037805461036790611965565b336000908152603460209081526040808320600160a060020a0386168452909152812054828110156109085760405160e560020a62461bcd02815260206004820152602560248201527f45524332303a2064656372656173656420616c6c6f77616e63652062656c6f7760448201527f207a65726f00000000000000000000000000000000000000000000000000000060648201526084016104a6565b61091533858584036109e1565b5060019392505050565b60006103f7338484610b3f565b606554600160a060020a031633146109595760405160e560020a62461bcd0281526004016104a690611757565b600160a060020a0381166109d85760405160e560020a62461bcd02815260206004820152602660248201527f4f776e61626c653a206e6577206f776e657220697320746865207a65726f206160448201527f646472657373000000000000000000000000000000000000000000000000000060648201526084016104a6565b61059581610f46565b600160a060020a038316610a5f5760405160e560020a62461bcd028152602060048201526024808201527f45524332303a20617070726f76652066726f6d20746865207a65726f2061646460448201527f726573730000000000000000000000000000000000000000000000000000000060648201526084016104a6565b600160a060020a038216610ade5760405160e560020a62461bcd02815260206004820152602260248201527f45524332303a20617070726f766520746f20746865207a65726f20616464726560448201527f737300000000000000000000000000000000000000000000000000000000000060648201526084016104a6565b600160a060020a0383811660008181526034602090815260408083209487168084529482529182902085905590518481527f8c5be1e5ebec7d5bd14f71427d1e84f3dd0314c0f7b2291e5b200ac8c7c3b925910160405180910390a3505050565b600160a060020a038316610bbe5760405160e560020a62461bcd02815260206004820152602560248201527f45524332303a207472616e736665722066726f6d20746865207a65726f20616460448201527f647265737300000000000000000000000000000000000000000000000000000060648201526084016104a6565b600160a060020a038216610c3d5760405160e560020a62461bcd02815260206004820152602360248201527f45524332303a207472616e7366657220746f20746865207a65726f206164647260448201527f657373000000000000000000000000000000000000000000000000000000000060648201526084016104a6565b600160a060020a03831660009081526033602052604090205481811015610ccf5760405160e560020a62461bcd02815260206004820152602660248201527f45524332303a207472616e7366657220616d6f756e742065786365656473206260448201527f616c616e6365000000000000000000000000000000000000000000000000000060648201526084016104a6565b600160a060020a03808516600090815260336020526040808220858503905591851681529081208054849290610d069084906117e9565b9250508190555082600160a060020a031684600160a060020a03167fddf252ad1be2c89b69c2b068fc378daa952ba7f163c4a11628f55a4df523b3ef84604051610d5291815260200190565b60405180910390a35b50505050565b7f360894a13ba1a3210667c828492db98dca3e2076cc3735a920a3ca505d382bbc54600160a060020a031690565b606554600160a060020a031633146105955760405160e560020a62461bcd0281526004016104a690611757565b6000610dc6610d61565b9050610dd18461113d565b600083511180610dde5750815b15610def57610ded8484611202565b505b7f4910fdfa16fed3260ed0e7147f7cc6da11a60208b5b9406d12a635614ffd9143805460ff16610f3f57805460ff19166001178155604051600160a060020a0383166024820152610e9c90869060440160408051601f198184030181529190526020810180517bffffffffffffffffffffffffffffffffffffffffffffffffffffffff167f3659cfe600000000000000000000000000000000000000000000000000000000179052611202565b50805460ff19168155610ead610d61565b600160a060020a031682600160a060020a031614610f365760405160e560020a62461bcd02815260206004820152602f60248201527f45524331393637557067726164653a207570677261646520627265616b73206660448201527f757274686572207570677261646573000000000000000000000000000000000060648201526084016104a6565b610f3f85611307565b5050505050565b60658054600160a060020a0383811673ffffffffffffffffffffffffffffffffffffffff19831681179093556040519116919082907f8be0079c531659141344cd1fd0a4f28419497f9722a3daafe3b4186f6b6457e090600090a35050565b600054610100900460ff16610fcf5760405160e560020a62461bcd0281526004016104a69061178c565b610fd7611347565b6106908282611371565b600054610100900460ff1661100b5760405160e560020a62461bcd0281526004016104a69061178c565b611013611347565b6106ea6113c2565b600054610100900460ff166110455760405160e560020a62461bcd0281526004016104a69061178c565b61104d611347565b6106ea611347565b600160a060020a0382166110ae5760405160e560020a62461bcd02815260206004820152601f60248201527f45524332303a206d696e7420746f20746865207a65726f20616464726573730060448201526064016104a6565b80603560008282546110c091906117e9565b9091555050600160a060020a038216600090815260336020526040812080548392906110ed9084906117e9565b9091555050604051818152600160a060020a038316906000907fddf252ad1be2c89b69c2b068fc378daa952ba7f163c4a11628f55a4df523b3ef9060200160405180910390a3610690565b505050565b803b6111b45760405160e560020a62461bcd02815260206004820152602d60248201527f455243313936373a206e657720696d706c656d656e746174696f6e206973206e60448201527f6f74206120636f6e74726163740000000000000000000000000000000000000060648201526084016104a6565b7f360894a13ba1a3210667c828492db98dca3e2076cc3735a920a3ca505d382bbc805473ffffffffffffffffffffffffffffffffffffffff1916600160a060020a0392909216919091179055565b6060823b61127b5760405160e560020a62461bcd02815260206004820152602660248201527f416464726573733a2064656c65676174652063616c6c20746f206e6f6e2d636f60448201527f6e7472616374000000000000000000000000000000000000000000000000000060648201526084016104a6565b60008084600160a060020a031684604051611296919061164e565b600060405180830381855af49150503d80600081146112d1576040519150601f19603f3d011682016040523d82523d6000602084013e6112d6565b606091505b50915091506112fe8282604051806060016040528060278152602001611a18602791396113f5565b95945050505050565b6113108161113d565b604051600160a060020a038216907fbc7cd75a20ee27fd9adebab32041f755214dbc6bffa90cc0225b39da2e5c2d3b90600090a250565b600054610100900460ff166106ea5760405160e560020a62461bcd0281526004016104a69061178c565b600054610100900460ff1661139b5760405160e560020a62461bcd0281526004016104a69061178c565b81516113ae906036906020850190611431565b508051611138906037906020840190611431565b600054610100900460ff166113ec5760405160e560020a62461bcd0281526004016104a69061178c565b6106ea33610f46565b606083156114045750816104c2565b8251156114145782518084602001fd5b8160405160e560020a62461bcd0281526004016104a6919061166a565b82805461143d90611965565b90600052602060002090601f01602090048101928261145f57600085556114a5565b82601f1061147857805160ff19168380011785556114a5565b828001600101855582156114a5579182015b828111156114a557825182559160200191906001019061148a565b506114b19291506114b5565b5090565b5b808211156114b157600081556001016114b6565b8035600160a060020a03811681146106ae57600080fd5b6000602082840312156114f2578081fd5b6104c2826114ca565b6000806040838503121561150d578081fd5b611516836114ca565b9150611524602084016114ca565b90509250929050565b600080600060608486031215611541578081fd5b61154a846114ca565b9250611558602085016114ca565b9150604084013590509250925092565b6000806040838503121561157a578182fd5b611583836114ca565b9150602083013567ffffffffffffffff8082111561159f578283fd5b818501915085601f8301126115b2578283fd5b8135818111156115c4576115c46119e8565b604051601f8201601f19908116603f011681019083821181831017156115ec576115ec6119e8565b81604052828152886020848701011115611604578586fd5b82602086016020830137856020848301015280955050505050509250929050565b60008060408385031215611637578182fd5b611640836114ca565b946020939093013593505050565b60008251611660818460208701611939565b9190910192915050565b6000602082528251806020840152611689816040850160208701611939565b601f01601f19169190910160400192915050565b6020808252602c908201527f46756e6374696f6e206d7573742062652063616c6c6564207468726f7567682060408201527f64656c656761746563616c6c0000000000000000000000000000000000000000606082015260800190565b6020808252602c908201527f46756e6374696f6e206d7573742062652063616c6c6564207468726f7567682060408201527f6163746976652070726f78790000000000000000000000000000000000000000606082015260800190565b6020808252818101527f4f776e61626c653a2063616c6c6572206973206e6f7420746865206f776e6572604082015260600190565b6020808252602b908201527f496e697469616c697a61626c653a20636f6e7472616374206973206e6f74206960408201527f6e697469616c697a696e67000000000000000000000000000000000000000000606082015260800190565b600082198211156117fc576117fc6119b9565b500190565b80825b60018086116118135750611840565b818704821115611825576118256119b9565b8086161561183257918102915b506002909404938002611804565b94509492505050565b60006104c260001960ff851684600082611865575060016104c2565b81611872575060006104c2565b81600181146118885760028114611892576118bf565b60019150506104c2565b60ff8411156118a3576118a36119b9565b8360020a9150848211156118b9576118b96119b9565b506104c2565b5060208310610133831016604e8410600b84101617156118f2575081810a838111156118ed576118ed6119b9565b6104c2565b6118ff8484846001611801565b808604821115611911576119116119b9565b02949350505050565b6000816000190483118215151615611934576119346119b9565b500290565b60005b8381101561195457818101518382015260200161193c565b83811115610d5b5750506000910152565b60028104600182168061197957607f821691505b602082108114156119b3577f4e487b7100000000000000000000000000000000000000000000000000000000600052602260045260246000fd5b50919050565b7f4e487b7100000000000000000000000000000000000000000000000000000000600052601160045260246000fd5b7f4e487b7100000000000000000000000000000000000000000000000000000000600052604160045260246000fdfe416464726573733a206c6f772d6c6576656c2064656c65676174652063616c6c206661696c6564a26469706673582212206503d9ac3ecfa0dbc1393a6de51c540ad3a24ffa4234f9c9bfe13528a0a6e62a64736f6c63430008030033",
  "immutableReferences": {
    "641": [
      {
        "length": 32,
        "start": 1236
      },
      {
        "length": 32,
        "start": 1303
      },
      {
        "length": 32,
        "start": 1503
      },
      {
        "length": 32,
        "start": 1570
      }
    ]
  },
  "source": "// SPDX-License-Identifier: MIT\npragma solidity ^0.8.2;\n\nimport \"@openzeppelin/contracts-upgradeable/token/ERC20/ERC20Upgradeable.sol\";\nimport \"@openzeppelin/contracts-upgradeable/proxy/utils/Initializable.sol\";\nimport \"@openzeppelin/contracts-upgradeable/access/OwnableUpgradeable.sol\";\nimport \"@openzeppelin/contracts-upgradeable/proxy/utils/UUPSUpgradeable.sol\";\n\ncontract MyToken is\n    Initializable,\n    ERC20Upgradeable,\n    OwnableUpgradeable,\n    UUPSUpgradeable\n{\n    function initialize() public initializer {\n        __ERC20_init(\"MyToken\", \"MTK\");\n        __Ownable_init();\n        __UUPSUpgradeable_init();\n        _mint(msg.sender, 1000000 * 10**decimals());\n    }\n\n    function _authorizeUpgrade(address newImplementation)\n        internal\n        override\n        onlyOwner\n    {}\n}\n",
  "sourcePath": "/home/karthi/Task Month Wise/openzepplin _ upgradable_contract/contracts/MyToken.sol",
  "compiler": {
    "name": "solc",
    "version": "0.8.3+commit.8d00100c.Emscripten.clang"
  },
  "schemaVersion": "3.4.3",
  "updatedAt": "2021-12-28T10:50:26.283Z",
  "networkType": "ethereum",
  "devdoc": {
    "kind": "dev",
    "methods": {
      "allowance(address,address)": {
        "details": "See {IERC20-allowance}."
      },
      "approve(address,uint256)": {
        "details": "See {IERC20-approve}. Requirements: - `spender` cannot be the zero address."
      },
      "balanceOf(address)": {
        "details": "See {IERC20-balanceOf}."
      },
      "decimals()": {
        "details": "Returns the number of decimals used to get its user representation. For example, if `decimals` equals `2`, a balance of `505` tokens should be displayed to a user as `5.05` (`505 / 10 ** 2`). Tokens usually opt for a value of 18, imitating the relationship between Ether and Wei. This is the value {ERC20} uses, unless this function is overridden; NOTE: This information is only used for _display_ purposes: it in no way affects any of the arithmetic of the contract, including {IERC20-balanceOf} and {IERC20-transfer}."
      },
      "decreaseAllowance(address,uint256)": {
        "details": "Atomically decreases the allowance granted to `spender` by the caller. This is an alternative to {approve} that can be used as a mitigation for problems described in {IERC20-approve}. Emits an {Approval} event indicating the updated allowance. Requirements: - `spender` cannot be the zero address. - `spender` must have allowance for the caller of at least `subtractedValue`."
      },
      "increaseAllowance(address,uint256)": {
        "details": "Atomically increases the allowance granted to `spender` by the caller. This is an alternative to {approve} that can be used as a mitigation for problems described in {IERC20-approve}. Emits an {Approval} event indicating the updated allowance. Requirements: - `spender` cannot be the zero address."
      },
      "name()": {
        "details": "Returns the name of the token."
      },
      "owner()": {
        "details": "Returns the address of the current owner."
      },
      "renounceOwnership()": {
        "details": "Leaves the contract without owner. It will not be possible to call `onlyOwner` functions anymore. Can only be called by the current owner. NOTE: Renouncing ownership will leave the contract without an owner, thereby removing any functionality that is only available to the owner."
      },
      "symbol()": {
        "details": "Returns the symbol of the token, usually a shorter version of the name."
      },
      "totalSupply()": {
        "details": "See {IERC20-totalSupply}."
      },
      "transfer(address,uint256)": {
        "details": "See {IERC20-transfer}. Requirements: - `recipient` cannot be the zero address. - the caller must have a balance of at least `amount`."
      },
      "transferFrom(address,address,uint256)": {
        "details": "See {IERC20-transferFrom}. Emits an {Approval} event indicating the updated allowance. This is not required by the EIP. See the note at the beginning of {ERC20}. Requirements: - `sender` and `recipient` cannot be the zero address. - `sender` must have a balance of at least `amount`. - the caller must have allowance for ``sender``'s tokens of at least `amount`."
      },
      "transferOwnership(address)": {
        "details": "Transfers ownership of the contract to a new account (`newOwner`). Can only be called by the current owner."
      },
      "upgradeTo(address)": {
        "details": "Upgrade the implementation of the proxy to `newImplementation`. Calls {_authorizeUpgrade}. Emits an {Upgraded} event."
      },
      "upgradeToAndCall(address,bytes)": {
        "details": "Upgrade the implementation of the proxy to `newImplementation`, and subsequently execute the function call encoded in `data`. Calls {_authorizeUpgrade}. Emits an {Upgraded} event."
      }
    },
    "version": 1
  },
  "userdoc": {
    "kind": "user",
    "methods": {},
    "version": 1
  }
}